:020000040800F2
:1000000078C20020F5090008610A0008610A0008AA
:10001000610A0008610A0008610A00080000000087
:10002000000000000000000000000000E12A0008BD
:10003000610A000800000000FD2B0008552C000894
:10004000610A0008610A0008610A0008610A0008E4
:10005000610A0008610A0008610A0008610A0008D4
:10006000610A0008610A0008610A0008610A0008C4
:10007000610A0008610A0008610A0008610A0008B4
:10008000610A0008610A0008610A0008610A0008A4
:10009000610A0008610A0008610A0008610A000894
:1000A000610A0008610A0008610A0008610A000884
:1000B000610A0008610A0008610A0008610A000874
:1000C000610A0008610A0008610A0008610A000864
:1000D000610A0008610A0008A50C0008610A00080E
:1000E000090B0008610A0008610A0008610A00089B
:1000F000610A0008610A0008610A0008610A000834
:10010000610A0008610A0008610A0008610A000823
:10011000610A0008610A0008610A0008610A000813
:10012000610A0008610A0008610A0008610A000803
:10013000610A0008610A0008610A0008610A0008F3
:10014000610A0008610A0008610A0008610A0008E3
:10015000610A0008610A0008610A0008610A0008D3
:10016000610A0008610A0008610A0008610A0008C3
:10017000610A0008610A0008610A0008610A0008B3
:10018000610A0008610A000810B5054C237833B9EC
:10019000044B13B10448AFF300800123237010BD5A
:1001A0005804002000000000B03C000808B5064BD1
:1001B0001BB106480649AFF300800648036813B137
:1001C000054B03B1984708BD00000000B03C000893
:1001D0005C040020540400200000000080B58AB0B8
:1001E00000AF7860396000237B6200233B6200230C
:1001F000FB610023BB617A68974B9A4217D07A68FB
:10020000964B9A4213D07A68954B9A420FD07A68EF
:10021000944B9A420BD07A68934B9A4207D07A68F3
:10022000924B9A4203D09248EB2100F07FFD3B684D
:100230001B68002B04D03B681A688E4B9A4203D986
:100240008B48EC2100F072FD3B689B88002B08D0A6
:100250003B689B88B3F5805F03D08548ED2100F0B3
:1002600065FD3B68DB88002B12D03B68DB88B3F56B
:10027000805F0DD03B68DB88B3F5005F08D03B683A
:10028000DB88B3F5405F03D07948EE2100F04EFDE6
:100290003B681B89002B0DD03B681B89B3F5806F31
:1002A00008D03B681B89B3F5C06F03D07048EF21BD
:1002B00000F03CFD3B685B891A464FF6F373134030
:1002C000002B03D13B685B89002B03D16848F021E8
:1002D00000F02CFD3B689B89002B12D03B689B896A
:1002E000B3F5807F0DD03B689B89B3F5007F08D0C4
:1002F0003B689B89B3F5407F03D05D48F12100F056
:1003000015FD3B689B89002B13D07A68524B9A42AB
:100310000FD07A68514B9A420BD07A68504B9A4270
:1003200007D07A68514B9A4203D05148F62100F029
:10033000FDFC7B681B8A9BB27B627B6A23F4405383
:100340007B623B68DB887A6A13437B627B6A9AB282
:100350007B681A827B689B899BB27B627B6A23F4F1
:10036000B05323F00C037B623B689A883B681B897F
:1003700013439AB23B685B8913439BB27A6A134377
:100380007B627B6A9AB27B689A817B689B8A9BB20C
:100390007B627B6A23F440737B623B689B897A6A49
:1003A00013437B627B6A9AB27B689A8207F10803E7
:1003B000184600F0C5FC7A68274B9A4203D07A6849
:1003C0002A4B9A4202D17B693B6201E03B693B6266
:1003D0007B689B899BB29BB21BB2002B0CDA3A6AFA
:1003E00013469B0013449A001A443B681B685B0049
:1003F000B2FBF3F3FB610BE03A6A13469B00134434
:100400009A001A443B681B689B00B2FBF3F3FB6144
:10041000FA69194BA3FB02135B091B017B627B6A20
:100420001B09642202FB03F3FA69D31ABB617B68E0
:100430009B899BB29BB21BB2002B1FDABB69DB000E
:1004400003F132020C4BA3FB02135B0903F0070319
:100450007A6A13437B621EE00010014000440040B2
:1004600000480040004C0040005000400014014093
:10047000E03A0008E07072001F85EB51BB691B0178
:1004800003F13202074BA3FB02135B0903F00F03D6
:100490007A6A13437B627B6A9AB27B681A81283737
:1004A000BD4680BD1F85EB5180B582B000AF78603E
:1004B0000B46FB707A681F4B9A4218D07A681E4B25
:1004C0009A4214D07A681D4B9A4210D07A681C4B1D
:1004D0009A420CD07A681B4B9A4208D07A681A4B21
:1004E0009A4204D0194840F29B1100F01FFCFB789F
:1004F000002B07D0FB78012B04D014484FF4CE71A9
:1005000000F014FCFB78002B08D07B689B899BB221
:1005100043F400539AB27B689A8107E07B689B8919
:100520009BB223F400539AB27B689A810837BD4688
:1005300080BD00BF00100140004400400048004062
:10054000004C00400050004000140140E03A000818
:1005500080B582B000AF78607A68134B9A4218D0A9
:100560007A68124B9A4214D07A68114B9A4210D092
:100570007A68104B9A420CD07A680F4B9A4208D096
:100580007A680E4B9A4204D00D4840F22D2100F0BB
:10059000CDFB7B689B889BB2C3F308039BB21846D4
:1005A0000837BD4680BD00BF001001400044004038
:1005B00000480040004C0040005000400014014042
:1005C000E03A000880B586B000AF786013460A466E
:1005D0007A807B7000233B610023FB600023BB60BB
:1005E00000237B617A684F4B9A4218D07A684E4B51
:1005F0009A4214D07A684D4B9A4210D07A684C4B8C
:100600009A420CD07A684B4B9A4208D07A684A4B8F
:100610009A4204D0494840F2BD4100F087FB7B88F4
:10062000282B25D07A8840F227739A4220D07A88E6
:1006300040F226639A421BD07A8840F225539A42B0
:1006400016D07A8840F224439A4211D07A8840F634
:1006500046039A420CD07A8840F66A139A4207D031
:100660007B88602B04D0354840F2BE4100F05EFB31
:100670007B78002B07D07B78012B04D02F4840F2E9
:10068000BF4100F053FB7A8840F66A139A4214D1B6
:100690007A68244B9A4210D07A68234B9A420CD045
:1006A0007A68224B9A4208D07A68234B9A4204D047
:1006B000224840F2C44100F039FB7B687B617B88B3
:1006C000DBB25B09DBB23B617B8803F01F03FB609D
:1006D000FB68012202FA03F3BB603B69012B03D1E3
:1006E0007B690C337B6109E03B69022B03D17B6999
:1006F00010337B6102E07B6914337B617B78002BD4
:1007000006D07B697A691168BA680A431A6006E004
:100710007B697A691168BA68D2430A401A6018374F
:10072000BD4680BD0010014000440040004800402C
:10073000004C00400050004000140140E03A000826
:1007400080B584B000AF78600B467B800023FB73DC
:100750007A68364B9A4218D07A68354B9A4214D050
:100760007A68344B9A4210D07A68334B9A420CD054
:100770007A68324B9A4208D07A68314B9A4204D058
:10078000304840F2FC4100F0D1FA7B88012B21D0A7
:100790007B88802B1ED07B88402B1BD07B88202B16
:1007A00018D07B88102B15D07B88B3F5807F11D0B3
:1007B0007B88B3F5007F0DD07B88082B0AD07B881F
:1007C000042B07D07B88022B04D01E4840F2FD4149
:1007D00000F0ACFA7B88B3F5007F14D17A68134B34
:1007E0009A4210D07A68124B9A420CD07A68114B18
:1007F0009A4208D07A68124B9A4204D0114840F2CB
:10080000025100F093FA7B681B889AB27B881340F0
:100810009BB2002B02D00123FB7301E00023FB738A
:10082000FB7B18461037BD4680BD00BF001001405D
:100830000044004000480040004C00400050004090
:1008400000140140E03A000880B586B000AF78603F
:100850000B467B800023FB6000237B610023BB6091
:100860000023FB747A685C4B9A4218D07A685B4B21
:100870009A4214D07A685A4B9A4210D07A68594BEF
:100880009A420CD07A68584B9A4208D07A68574BF3
:100890009A4204D056484FF4AA6100F047FA7B8888
:1008A000282B37D07A8840F227739A4232D07A8840
:1008B00040F226639A422DD07A8840F225539A421C
:1008C00028D07A8840F224439A4223D07A8840F68E
:1008D00046039A421ED07A8840F66A139A4219D08B
:1008E0007B88B3F5587F15D07A8840F225339A4239
:1008F00010D07B88B3F5587F0CD07B88B3F5187F78
:1009000008D07B88B3F5B07F04D0394840F251510C
:1009100000F00CFA7A8840F66A139A4214D17A6889
:100920002D4B9A4210D07A682C4B9A420CD07A68A0
:100930002B4B9A4208D07A682C4B9A4204D02C4810
:1009400040F2565100F0F2F97B88DBB25B09DBB272
:10095000BB607B8803F01F037B617B69012202FA85
:1009600003F37B61BB68012B06D17B689B899BB23B
:100970007A6913407B610FE0BB68022B06D17B686C
:100980001B8A9BB27A6913407B6105E07B689B8A76
:100990009BB27A6913407B617B881B0A9BB2FB6028
:1009A000FB68012202FA03F3FB607B681B889BB2A1
:1009B000FA681340FB607B69002B05D0FB68002BB5
:1009C00002D00123FB7401E00023FB74FB7C18467A
:1009D0001837BD4680BD00BF0010014000440040F4
:1009E00000480040004C004000500040001401400E
:1009F000E03A000880B582B000AF134B7B60134B28
:100A00003B6007E03B681A1D3A607A68111D796007
:100A100012681A603A680E4B9A42F3D30D480E4999
:100A20004FF000028842B8BF40F8042BFFF6FAAF3F
:100A3000DFF82800016841F47001016000F0BCF8A3
:100A40000837BD4680BD00BFB03C00080000002054
:100A5000580400205804002074BA002088ED00E0FB
:100A600080B500AF002000F061F9FEE780B483B0EC
:100A700000AF78603960FEE780B400AFBD465DF836
:100A8000047B704780B582B000AF0120012100F0E7
:100A900001FA0420012100F0FDF90820012100F0F5
:100AA000F9F94FF48040012100F09AFA01233B71DB
:100AB0004FF470433B6002237B710023BB71002322
:100AC000FB713B460E48194601F090FB01233B7138
:100AD00001233B6002237B710023BB710223FB7166
:100AE0003B460848194601F081FB4020012100F0F7
:100AF00009FA012002F062FC0837BD4680BD00BF44
:100B0000000C02400000024080B500AF4FF40050DE
:100B100002F07AFC0346002B03D04FF4005002F0A1
:100B2000F1FC80BD80B582B000AF78601D4B1B88A2
:100B300001339AB21B4B1A801A4B1B88142B0DD908
:100B4000184B00221A8018484FF4304101F0B6FCCF
:100B5000154B154A526982F480425A61134B1B8827
:100B600001339AB2114B1A80104B1B88642B15D994
:100B70000E4B00221A800E48012101F04DFC0D4B56
:100B800041229A8000BF0B488021FFF7D9FD034620
:100B9000002BF8D00648012101F090FC0A2000F05B
:100BA0005FFDC3E774040020000C024076040020BF
:100BB000000002400044004080B58CB004AFFFF755
:100BC00061FF01F0A7FE4FF40030012100F0D0F9E1
:100BD0000120012100F05EF90C23BB6102233B7769
:100BE00002237B770023BB770123FB7707F11803F0
:100BF0002848194601F0FAFA26480221072201F096
:100C0000AFFC24480321072201F0AAFC4FF4E14382
:100C1000BB600023BB810023FB8100233B820023B8
:100C2000BB820C237B8207F108031B481946FFF7A0
:100C3000D5FA194840F225510122FFF7C3FC2623BB
:100C40003B7100237B710023BB710123FB713B1DB2
:100C5000184602F073FC10480121FFF725FC0D48EF
:100C6000012101F02BFC03230093002301930023B7
:100C7000029300230393094809494FF4806200233B
:100C800000F054FC00F026FD002318462037BD4636
:100C900080BD00BF0000024000440040250B00085A
:100CA000283B000880B582B000AF1D484FF40041DA
:100CB00001F0B2FB1B4840F22551FFF7C5FD03468A
:100CC000002B2AD01748FFF743FC0346FB71164858
:100CD000012101F0A1FB134B124A928892B29A8033
:100CE00000BF10488021FFF72BFD0346002BF8D0F2
:100CF0000D48012101F0E2FBFB79002B05D10848EA
:100D00004FF4805101F088FB07E0FB79FF2B04D101
:100D100003484FF4005101F07FFB0837BD4680BD0A
:100D2000000C0240004400400000024080B582B048
:100D300000AF7860396000F0FFFC0837BD4680BD29
:100D400080B489B000AF78600023BB6100237B6171
:100D50000023FB6102233B610023FB600223BB6095
:100D6000484B9B6803F00C03BB61BB69042B07D0A5
:100D7000082B09D0002B3FD17B68434A1A603FE023
:100D80007B68424A1A603BE03E4B5B6803F4800399
:100D90009B0DFB603B4B5B6803F03F03BB60FB6854
:100DA000002B0DD0394ABB68B2FBF3F2354B5968C2
:100DB00047F6C0730B409B0903FB02F3FB610CE099
:100DC000314ABB68B2FBF3F22E4B596847F6C07349
:100DD0000B409B0903FB02F3FB612A4B5B6803F4A6
:100DE00040331B0C01335B003B61FA693B69B2FB8A
:100DF000F3F27B681A6003E07B68234A1A6000BF45
:100E0000204B9B6803F0F003BB61BB691B09BB610E
:100E10001F4ABB6913441B78DBB27B617B681A688D
:100E20007B69DA407B685A60164B9B6803F4E05399
:100E3000BB61BB699B0ABB61154ABB6913441B7844
:100E4000DBB27B617B685A687B69DA407B689A60B9
:100E50000C4B9B6803F46043BB61BB695B0BBB61DC
:100E60000B4ABB6913441B78DBB27B617B685A6811
:100E70007B69DA407B68DA602437BD465DF8047B25
:100E8000704700BF003802400024F40040787D0124
:100E90000000002080B582B000AF78600B46FB7088
:100EA0007A68154B1340002B02D17B68002B04D1CC
:100EB00012484FF48861FFF739FFFB78002B07D009
:100EC000FB78012B04D00D4840F24241FFF72EFF82
:100ED000FB78002B06D00A4B094A116B7A680A434B
:100EE0001A6306E0064B064A116B7A68D2430A4041
:100EF0001A630837BD4680BD00EE8B81303B000889
:100F00000038024080B582B000AF78600B46FB70BD
:100F10007B6823F0F103002B02D17B68002B04D106
:100F200011484FF48C61FFF701FFFB78002B07D0CD
:100F3000FB78012B04D00C4840F26141FFF7F6FE2C
:100F4000FB78002B06D0094B084A516B7A680A439C
:100F50005A6306E0054B054A516B7A68D2430A4052
:100F60005A630837BD4680BD303B00080038024058
:100F700080B582B000AF78600B46FB707A68154B85
:100F80001340002B02D17B68002B04D1124840F2A1
:100F9000AD41FFF7CBFEFB78002B07D0FB78012B90
:100FA00004D00D4840F2AE41FFF7C0FEFB78002BA5
:100FB00006D00A4B094A116C7A680A431A6406E0A3
:100FC000064B064A116C7A68D2430A401A64083705
:100FD000BD4680BD003601C9303B000800380240E4
:100FE00080B582B000AF78600B46FB707A68154B15
:100FF0001340002B02D17B68002B04D1124840F231
:10100000D541FFF793FEFB78002B07D0FB78012B2F
:1010100004D00D4840F2D641FFF788FEFB78002B44
:1010200006D00A4B094A516C7A680A435A6406E0B2
:10103000064B064A516C7A68D2430A405A64083714
:10104000BD4680BDCCA0F8FF303B00080038024010
:1010500080B586B004AF00237B6000F031FA0C4B02
:101060001B68002B0FD00323009300230193002360
:10107000029300230393074807494FF4806200233B
:1010800000F054FA78607B6818460837BD4680BD8A
:10109000A80400208D110008783B000880B588B0B6
:1010A00000AFF860B9607A603B600023FB611D4BC4
:1010B0001B68002B30D0BB683B617B687B61FB68A1
:1010C000BB61BB68052B1CDC00F084FF0346022BD0
:1010D0000BD1144B1A6807F1100310461946BA6A6F
:1010E000002301F071FEF86116E00E4B1A6807F15B
:1010F0001003104619460022002301F065FEF86136
:101100000AE0084B1A6807F11003104619463A68BE
:10111000002301F0EBFEF861FB6918462037BD465D
:1011200080BD00BFA804002080B586B002AF786003
:101130003960154B1B68DB68DB68FB60FB680433B8
:10114000184601F0BDFBFB68DB69012B15D1FB687C
:101150009A697B681344F86819463A687B6800F01E
:10116000A1F80346012B08D100230093F868002161
:101170007A680023FFF792FFB860FB685B6AF86843
:1011800098471037BD4680BDA004002080B584B0CC
:1011900000AF786007F10803184600F03FF8F860E8
:1011A000BB68F868194600F003F800F0BDF8F1E7F5
:1011B00080B584B000AF7860396000F0C9FA07F1FB
:1011C0000803184600F04EF8F860BB68002B1ED1EB
:1011D0003B68002B0AD17A68FB689A4206D800F077
:1011E000C5FA7868F968FFF79FFF12E00A4B1A68A2
:1011F0007968FB68CB1A1046194602F0B3F800F084
:10120000B5FA0346002B04D101F0B8FC01E000F070
:10121000ADFA1037BD4680BDA804002080B485B06B
:1012200000AF78600E4B1B681B68002B14BF0023B7
:101230000123DBB21A467B681A607B681B68002BAF
:1012400005D1074B1B68DB681B68FB6001E00023CE
:10125000FB60FB6818461437BD465DF8047B704799
:10126000A004002080B584B000AF786000F0FCFAE4
:10127000F8600B4B1B68FA689A4205D200F0CEF872
:101280007B6801221A6002E07B6800221A60044B2E
:10129000FA681A60FB6818461037BD4680BD00BF6B
:1012A000AC04002080B586B000AFF860B9607A6009
:1012B0003B6000237B61FB68BA685A60FB68FA6890
:1012C0001A61BA687B689A4212D87A683B68D21A67
:1012D000FB689B699A4202D301237B611BE0104BA0
:1012E0001A68FB6804331046194601F0B1FA12E09F
:1012F0007A683B689A4206D2BA683B689A4202D33F
:1013000001237B6107E0074B1A68FB680433104632
:10131000194601F09DFA7B6918461837BD4680BD15
:10132000A4040020A004002080B58AB002AF63E0CE
:10133000BB68002B60DB3B69FB61FB695B69002BD1
:1013400004D0FB690433184601F0BAFA3B1D184675
:10135000FFF788FFB861BB68092B4CD801A252F88F
:1013600023F000BF8D1300088D1300088D130008B3
:10137000F7130008D3130008EF1300088D130008BB
:101380008D130008F7130008D3130008FA68FB69EF
:101390009B691A44FB68F8691146BA69FFF782FF36
:1013A0000346012B14D1FB695B6AF8699847FB6916
:1013B000DB69012B0CD1FA68FB699B69134400229D
:1013C0000092F86900211A460023FFF767FE786152
:1013D00012E0FA68FB699A61FB699A69BB69134478
:1013E000F8691946BA69BB69FFF75CFF04E0F86960
:1013F00002F0AAF900E000BF074B1A6807F10803E2
:10140000104619460022002301F0BEFD0346002BC2
:101410008ED12037BD4680BDA804002080B588B09D
:1014200002AF37E0244B1B68DB681B687B61224BF3
:101430001B68DB68DB683B613B690433184601F0DD
:101440003FFA3B695B6A386998473B69DB69012B66
:1014500020D13B699A697B691344FB60FA687B6918
:101460009A420ED93B69FA685A603B693A691A6137
:10147000114B1A683B6904331046194601F0E8F92C
:1014800008E000230093386900217A690023FFF700
:1014900005FEB860084B1B681B68002BC2D1064BC9
:1014A0001B687B60054B1A68034B1A60034B7A6814
:1014B0001A601837BD4680BDA0040020A404002097
:1014C00080B500AF01F06AFB124B1B68002B1DD1E9
:1014D000114801F06DF9114801F06AF9104B0E4AFC
:1014E0001A60104B0D4A1A6005200C21002201F0F1
:1014F00033FC0246074B1A60064B1B68002B05D0D5
:10150000044B1B681846084901F004FF01F056FB24
:1015100080BD00BFA8040020780400208C040020B7
:10152000A0040020A4040020803B000880B58AB0FD
:1015300002AFF860B9603B601346FB80FB88184639
:10154000396B00F0E1FCB861BB69002B65D0BB6969
:101550001A6BFB8803F18043013B9B0013447B61C2
:101560007B6923F007037B61FB880093B869B96846
:10157000BA6A7B6B00F0D0FB7869F9683A6801F0D1
:1015800077FA0246BB691A60FB6A002B02D0FB6A3D
:10159000BA691A6001F002FB2B4B1B685A1C2A4BDC
:1015A0001A602A4B1B68002B09D1284BBA691A60B4
:1015B000254B1B68012B0FD100F0F8FB0CE0244BEE
:1015C0001B68002B08D1214B1B68DA6ABB6A9A4260
:1015D00002D81E4BBA691A601E4B1B685A1C1D4B61
:1015E0001A60BB69DB6A01229A401B4B1B681A43D5
:1015F000194B1A60BB69DA6A13469B0013449B00BF
:10160000164A1A44BB6904331046194601F0FCF827
:101610000123FB6101F0D2FA02E04FF0FF33FB61DE
:10162000FB69012B0BD10A4B1B68002B07D0074B22
:101630001B68DA6ABB6A9A4201D201F09FFAFB6921
:1016400018462037BD4680BDEC050020B0040020C0
:10165000F805002008060020F4050020B40400204E
:1016600080B584B000AF78600023FB607B68002BFE
:1016700021D000F06DF8144B1A687B681344BB60EE
:10168000124B1B680433184601F01AF90346002B6D
:101690000BD10E4B1B68DB6A012202FA03F3DA431B
:1016A0000B4B1B681A400A4B1A60B86800F0F6FB37
:1016B00000F05CF8F860FB68002B01D101F05EFAE5
:1016C0001037BD4680BD00BFF0050020B0040020EB
:1016D000F405002080B586B004AF002300930023FA
:1016E000019300230293002303930F480F494FF403
:1016F00080620023FFF71AFF78607B68012B02D11C
:10170000FFF7A6FC78607B68012B09D101F068FA2D
:10171000074B01221A60074B00221A6001F000FA01
:101720000837BD4680BD00BFF91C0008883B000893
:10173000F8050020F005002080B500AF01F050FA58
:10174000024B00221A6001F013FA80BDF805002058
:1017500080B400AF044B1B685A1C034B1A60BD4693
:101760005DF8047B704700BF0C06002080B582B096
:1017700000AF00237B6001F011FA334B1B685A1E47
:10178000314B1A60304B1B68002B55D12F4B1B6817
:10179000002B51D02EE02E4BDB68DB683B603B68B2
:1017A0001833184601F08CF83B680433184601F0F2
:1017B00087F83B68DB6A01229A40264B1B681A4374
:1017C000244B1A603B68DA6A13469B0013449B0063
:1017D000214A1A443B6804331046194601F014F8B4
:1017E0003B68DA6A1D4B1B68DB6A9A4202D31C4BCA
:1017F00001221A60164B1B68002BCCD1194B1B68B9
:10180000002B11D00CE000F041F80346002B02D071
:10181000134B01221A60134B1B685A1E114B1A609E
:10182000104B1B68002BEED10D4B1B68012B03D115
:1018300001237B6001F0A2F901F0C0F97B68184632
:101840000837BD4680BD00BF0C060020EC05002017
:10185000AC050020F4050020B4040020B0040020F2
:1018600000060020FC05002080B582B000AF01F02A
:1018700095F9054B1B687B6001F0A0F97B68184661
:101880000837BD4680BD00BFF005002080B586B09A
:1018900000AF00237B614D4B1B68002B40F0848020
:1018A0004B4B1B685A1C4A4B1A60494B1B683B61E7
:1018B0003B69002B10D1474B1B68FB60464B1A68F5
:1018C000444B1A60444BFA681A60444B1B685A1C1C
:1018D000424B1A6000F05AFB414B1B683A699A422E
:1018E0004DD33C4B1B681B68002B01D1012300E04A
:1018F0000023002B04D03A4B4FF0FF321A603EE039
:10190000344B1B68DB68DB68BB60BB685B687B6073
:101910003A697B689A4203D2314B7A681A602EE0AA
:10192000BB680433184600F0CBFFBB689B6A002BF2
:1019300004D0BB681833184600F0C2FFBB68DB6AEE
:1019400001229A40274B1B681A43264B1A60BB683A
:10195000DA6A13469B0013449B00234A1A44BB686F
:1019600004331046194600F04FFFBB68DA6A1F4B7C
:101970001B68DB6A9A4201D301237B61B1E71B4BF1
:101980001B68DA6A184913469B0013449B000B44FA
:101990001B68012B01D901237B61154B1B68002BB0
:1019A00009D1FFF769F806E0114B1B685A1C104B70
:1019B0001A60FFF761F80F4B1B68002B01D0012361
:1019C0007B617B6918461837BD4680BD0C06002038
:1019D000F0050020A4050020A80500200406002032
:1019E00010000020F4050020B4040020B004002002
:1019F000FC0500200006002080B584B000AF234B1A
:101A00001B68002B03D0224B01221A603BE0204BC5
:101A100000221A601F4B1B681A681E4B1B681B6B49
:101A20009A4208D81B4B1A681A4B1B68343310466D
:101A30001946FFF71BF8184B1B687B607B68B3FAED
:101A400083F3FB70FB78C3F11F03FB60FA68134656
:101A50009B0013449B00114A1344BB60BB685B6846
:101A60005A68BB685A60BB685A68BB6808339A42B8
:101A700004D1BB685B685A68BB685A60BB685B6826
:101A8000DA68044B1A601037BD4680BD0C06002092
:101A900000060020B0040020F4050020B40400205B
:101AA00080B584B000AF78603960194B1B6818337B
:101AB0007868194600F0CCFE154B1B6804331846B5
:101AC00000F0FEFE0346002B0BD1114B1B68DB6AB6
:101AD000012202FA03F3DA430E4B1B681A400D4B46
:101AE0001A603B68B3F1FF3F07D1094B1B68043311
:101AF0000948194600F088FE07E0084B1A683B6861
:101B00001344FB60F86800F0C9F91037BD4680BD8A
:101B1000B0040020F4050020D8050020F0050020C6
:101B200080B584B000AF78603960134B1B68183300
:101B30007868194600F068FE0F4B1B68043318469E
:101B400000F0BEFE0346002B0BD10B4B1B68DB6A7B
:101B5000012202FA03F3DA43084B1B681A40074BD1
:101B60001A60074B1A683B681344FB60F86800F082
:101B700095F91037BD4680BDB0040020F405002063
:101B8000F005002080B584B000AF78607B68DB682A
:101B9000DB68BB60BB681833184600F091FE1D4B34
:101BA0001B68002B1CD1BB680433184600F088FE6C
:101BB000BB68DB6A01229A40174B1B681A43164B1D
:101BC0001A60BB68DA6A13469B0013449B00134AF1
:101BD0001A44BB6804331046194600F015FE05E0B0
:101BE000BB6818330E48194600F00EFEBB68DA6A6F
:101BF0000C4B1B68DB6A9A4205D90123FB600A4B38
:101C000001221A6001E00023FB60FB6818461037D0
:101C1000BD4680BD0C060020F4050020B404002061
:101C2000AC050020B00400200006002080B483B082
:101C300000AF7860064B1A687B681A60054B1A681B
:101C40007B685A600C37BD465DF8047B704700BF67
:101C500004060020F005002080B584B000AF786055
:101C6000396000F09BFF1C4B1B68BB603B681B6826
:101C7000B3F1FF3F02D10023FB6026E07B681A68C6
:101C8000164B1B689A4207D07B685A68BB689A4219
:101C900002D80123FB6018E07B685B68BA68D21A3F
:101CA0003B681B689A420ED23B681A687B68596889
:101CB000BB68CB1A1A443B681A607868FFF7B6FF16
:101CC0000023FB6001E00123FB6000F077FFFB686D
:101CD00018461037BD4680BDF005002004060020E0
:101CE00080B400AF034B01221A60BD465DF8047B4F
:101CF000704700BF0006002080B582B000AF78605A
:101D000000F092F8034B1B68012B01D900F036FF5D
:101D1000F6E700BFB404002080B586B000AFF860DD
:101D2000B9607A603B6000237B6112E0BA687B692E
:101D300013441A78F9687B690B4430331A71BA6816
:101D40007B6913441B78002B00D105E07B690133CC
:101D50007B617B690F2BE9D9FB68002283F8432064
:101D60007B68092B01D909237B60FB687A68DA62FA
:101D7000FB687A685A64FB6800229A64FB68043343
:101D8000184600F035FDFB681833184600F030FDAA
:101D9000FB68FA681A617B68C3F10A02FB689A6102
:101DA000FB68FA685A621837BD4680BD80B582B0BC
:101DB00000AF00237B600CE07A6813469B0013445D
:101DC0009B00114A1344184600F0F2FC7B68013373
:101DD0007B607B68092BEFD90C4800F0E9FC0C48CC
:101DE00000F0E6FC0B4800F0E3FC0B4800F0E0FCE0
:101DF0000A4800F0DDFC0A4B044A1A60094B044A09
:101E00001A600837BD4680BDB40400207C05002060
:101E100090050020AC050020C0050020D80500205A
:101E2000A4050020A805002080B582B000AF28E0FE
:101E3000FFF78EFC164B1B68002B14BF00230123F9
:101E4000DBB27B60FFF792FC7B68002B19D100F0BE
:101E5000A5FE0F4BDB68DB683B603B68043318462C
:101E600000F02EFD0B4B1B685A1E0A4B1A600A4BE2
:101E70001B685A1E084B1A6000F0A0FE386800F07C
:101E800075F8054B1B68002BD2D10837BD4680BDC5
:101E9000C0050020EC050020D405002080B582B0EC
:101EA00000AF7860134B1B687A685A60124B1B684E
:101EB0007A689A4209D2114B1A680E4B1B68043398
:101EC0001046194600F0C4FC10E00D4B1A68094B8F
:101ED0001B6804331046194600F0BAFC094B1B6816
:101EE0007A689A4202D2074B7A681A600837BD4670
:101EF00080BD00BFB0040020F0050020A805002030
:101F0000A40500201000002080B584B000AF034677
:101F10003960FB804C2001F08BFBF860FB68002BE4
:101F20001FD03B68002B06D1FB889B00184601F0B0
:101F30007FFB034600E03B68FA681363FB681B6B9A
:101F4000002B05D1F86801F0FFFB0023FB6008E0DF
:101F5000FB681A6BFB889B001046A5211A4601F00E
:101F6000EDFCFB6818461037BD4680BD80B582B0D9
:101F700000AF78607B681B6B184601F0E5FB786862
:101F800001F0E2FB0837BD4680BD00BF80B483B0DE
:101F900000AF0E4B1B681B68002B01D1012300E032
:101FA0000023002B04D00A4B4FF0FF321A6008E0E8
:101FB000064B1B68DB68DB687B607B685A68044BF8
:101FC0001A600C37BD465DF8047B7047A4050020FD
:101FD0001000002080B483B000AF0B4B1B68002BB7
:101FE00002D101237B6008E0084B1B68002B02D163
:101FF00002237B6001E000237B607B6818460C377E
:10200000BD465DF8047B7047F80500200C060020F3
:1020100080B584B000AF78607B68FB607B68002B84
:1020200062D0FB68DA6A324B1B68DB6A9A425BD289
:10203000FB689B69002B06DB2D4B1B68DB6AC3F139
:102040000A02FB689A61FB685969FB68DA6A134601
:102050009B0013449B00274A1344994201D101235A
:1020600000E00023002B3AD0FB680433184600F050
:1020700027FC0346002B15D1FB68DA6A1D4913467D
:102080009B0013449B000B441B68002B0AD1FB6888
:10209000DB6A012202FA03F3DA43174B1B681A408A
:1020A000154B1A60124B1B68DA6AFB68DA62FB6830
:1020B000DB6A01229A40104B1B681A430E4B1A60D0
:1020C000FB68DA6A13469B0013449B00094A1A44D2
:1020D000FB6804331046194600F096FB04E0044BFD
:1020E0001B68DA6AFB68DA621037BD4680BD00BF44
:1020F000B0040020B4040020F405002080B584B0B2
:1021000000AF78607B68BB600023FB607B68002BBE
:102110004FD0BB689B6C5A1EBB689A64BB68DA6A76
:10212000BB685B6C9A4244D0BB689B6C002B40D16F
:10213000BB680433184600F0C3FB0346002B15D1DF
:10214000BB68DA6A1D4913469B0013449B000B448D
:102150001B68002B0AD1BB68DB6A012202FA03F379
:10216000DA43174B1B681A40154B1A60BB685A6C50
:10217000BB68DA62BB68DB6AC3F10A02BB689A61BA
:10218000BB68DB6A01229A400D4B1B681A430C4B5B
:102190001A60BB68DA6A13469B0013449B00074A27
:1021A0001A44BB6804331046194600F02DFB012386
:1021B000FB60FB6818461037BD4680BDB4040020A4
:1021C000F405002080B400AF074B1B68002B04D03F
:1021D000054B1B689A6C01329A64034B1B681846C6
:1021E000BD465DF8047B7047B004002080B586B022
:1021F00000AF7860396000237B6100233B610023DE
:10220000FB607A687A4B9A4223D07A68794B9A427B
:102210001FD07A68784B9A421BD07A68774B9A42E3
:1022200017D07A68764B9A4213D07A68754B9A42E7
:102230000FD07A68744B9A420BD07A68734B9A42EB
:1022400007D07A68724B9A4203D07248BB21FEF7DE
:102250006DFD3B681B68002B03D16E48BC21FEF767
:1022600065FD3B681B79002B0FD03B681B79012B68
:102270000BD03B681B79022B07D03B681B79032BE3
:1022800003D06448BD21FEF751FD3B68DB79002B8C
:102290000BD03B68DB79012B07D03B68DB79022B45
:1022A00003D05C48BE21FEF741FD00237B6197E02F
:1022B0007B69012202FA03F33B613B681A683B69C0
:1022C0001340FB60FA683B699A4240F086807B6865
:1022D0001A687B695B00032101FA03F3DB431A40B0
:1022E0007B681A607B681A683B681B7919467B69B2
:1022F0005B0001FA03F31A437B681A603B681B79A1
:10230000012B03D03B681B79022B4ED13B685B79D4
:10231000002B0FD03B685B79012B0BD03B685B79BE
:10232000022B07D03B685B79032B03D03948D021BF
:10233000FEF7FCFC7B689A687B695B00032101FA6D
:1023400003F3DB431A407B689A607B689A683B68BA
:102350005B7919467B695B0001FA03F31A437B68DA
:102360009A603B689B79002B07D03B689B79012BD7
:1023700003D02848D721FEF7D9FC7B685A687B69CF
:102380009BB2012101FA03F3DB431A407B685A60D8
:102390007B685A683B689B7919467B699BB201FA56
:1023A00003F39BB21A437B685A607B68DA687B69E7
:1023B0009BB25B00032101FA03F3DB431A407B6805
:1023C000DA607B68DA683B68DB7919467B695B0019
:1023D00001FA03F31A437B68DA607B6901337B619E
:1023E0007B690F2B7FF664AF1837BD4680BD00BFF9
:1023F000000002400004024000080240000C0240BD
:10240000001002400014024000180240001C02406C
:1024100000200240903B000880B582B000AF786099
:102420000B467B807A681B4B9A4224D07A681A4B01
:102430009A4220D07A68194B9A421CD07A68184B7D
:102440009A4218D07A68174B9A4214D07A68164B81
:102450009A4210D07A68154B9A420CD07A68144B85
:102460009A4208D07A68134B9A4204D0124840F23C
:102470007F11FEF75BFC7B88002B04D10E484FF4E4
:10248000C071FEF753FC7B687A881A830837BD4613
:1024900080BD00BF0000024000040240000802406E
:1024A000000C0240001002400014024000180240DC
:1024B000001C024000200240903B000880B582B022
:1024C00000AF78600B467B807A681B4B9A4224D021
:1024D0007A681A4B9A4220D07A68194B9A421CD0DB
:1024E0007A68184B9A4218D07A68174B9A4214D0DF
:1024F0007A68164B9A4210D07A68154B9A420CD0E3
:102500007A68144B9A4208D07A68134B9A4204D0E6
:1025100012484FF4C971FEF709FC7B88002B04D1E7
:102520000E4840F29311FEF701FC7B687A885A83CB
:102530000837BD4680BD00BF0000024000040240D5
:1025400000080240000C024000100240001402404B
:1025500000180240001C024000200240903B00088E
:1025600080B584B000AF786013460A467A807B70ED
:102570000023FB600023BB607A68834B9A4224D01F
:102580007A68824B9A4220D07A68814B9A421CD05A
:102590007A68804B9A4218D07A687F4B9A4214D05E
:1025A0007A687E4B9A4210D07A687D4B9A420CD062
:1025B0007A687C4B9A4208D07A687B4B9A4204D066
:1025C0007A4840F21721FEF7B1FB7B88002B31D00F
:1025D0007B88012B2ED07B88022B2BD07B88032B72
:1025E00028D07B88042B25D07B88052B22D07B88A4
:1025F000062B1FD07B88072B1CD07B88082B19D07B
:102600007B88092B16D07B880A2B13D07B880B2B59
:1026100010D07B880C2B0DD07B880D2B0AD07B88AB
:102620000E2B07D07B880F2B04D060484FF4067127
:10263000FEF77CFB7B78002B6DD07B78092B6AD072
:102640007B78002B67D07B78002B64D07B78002BC5
:1026500061D07B78002B5ED07B78012B5BD07B78C0
:10266000012B58D07B78022B55D07B78022B52D08F
:102670007B78022B4FD07B78032B4CD07B78042BBC
:1026800049D07B78042B46D07B78042B43D07B78D1
:10269000052B40D07B78052B3DD07B78092B3AD099
:1026A0007B78062B37D07B78092B34D07B78072BAF
:1026B00031D07B78072B2ED07B78072B2BD07B78E3
:1026C000082B28D07B78082B25D07B78082B22D0AC
:1026D0007B78092B1FD07B78092B1CD07B780A2BA9
:1026E00019D07B780A2B16D07B780B2B13D07B78F4
:1026F0000C2B10D07B780C2B0DD07B780C2B0AD0B8
:102700007B780D2B07D07B780F2B04D0274840F225
:102710001921FEF70BFB7A787B8803F007039B00F7
:1027200002FA03F3FB607B88DB089BB21A467B88C6
:10273000DB089BB219467B68083153F821107B886F
:1027400003F007039B000F2000FA03F3DB4319405B
:102750007B68083243F822107B88DB089BB21A465C
:102760007B68083253F82220FB681343BB607B88E8
:10277000DB089BB21A467B680832B96843F822101E
:102780001037BD4680BD00BF00000240000402407B
:1027900000080240000C02400010024000140240F9
:1027A00000180240001C024000200240903B00083C
:1027B00080B483B000AF78607B6803F108027B6867
:1027C0005A607B684FF0FF329A607B6803F1080221
:1027D0007B68DA607B6803F108027B681A617B68BA
:1027E00000221A600C37BD465DF8047B704700BFBD
:1027F00080B483B000AF78607B6800221A610C3728
:10280000BD465DF8047B704780B485B000AF78604A
:1028100039607B685B68FB603B68FA685A60FB68FC
:102820009A683B689A60FB689B683A685A60FB68E4
:102830003A689A603B687A681A617B681B685A1C20
:102840007B681A601437BD465DF8047B704700BF93
:1028500080B485B000AF786039603B681B68BB60AE
:10286000BB68B3F1FF3F03D17B681B69FB600CE0E1
:102870007B680833FB6002E0FB685B68FB60FB6819
:102880005B681A68BB689A42F6D9FB685A683B686D
:102890005A603B685B683A689A603B68FA689A607D
:1028A000FB683A685A603B687A681A617B681B6803
:1028B0005A1C7B681A601437BD465DF8047B70476C
:1028C00080B485B000AF78607B681B69FB607B6873
:1028D0005B687A6892689A607B689B687A685268DD
:1028E0005A60FB685A687B689A4203D17B689A6891
:1028F000FB685A607B6800221A61FB681B685A1EDD
:10290000FB681A60FB681B6818461437BD465DF803
:10291000047B704780B500AF154B154AD2F888206C
:1029200042F47002C3F88820124B124A126842F037
:1029300001021A600F4B00229A600E4A0D4B1B6871
:1029400023F0847323F4803313600A4B0A4A5A60DD
:10295000084B084A126822F480221A60054B0022B4
:10296000DA6000F00BF8024B4FF000629A6080BD15
:1029700000ED00E0003802401030002480B483B045
:1029800000AF00237B6000233B60354B344A126864
:1029900042F480321A60324B1B6803F400333B6010
:1029A0007B6801337B603B68002B03D17B68B3F508
:1029B000A06FF0D12A4B1B6803F40033002B02D028
:1029C00001233B6001E000233B603B68012B42D1C7
:1029D000234B234A126C42F080521A64214B214A45
:1029E000126842F480421A601D4B1D4A92689A6038
:1029F0001B4B1B4A926842F400429A60184B184ADB
:102A0000926842F4A0529A60154B174A5A60144BD0
:102A1000134A126842F080721A6000BF104B1B68A4
:102A200003F00073002BF9D0104B40F205621A60DE
:102A30000B4B0B4A926822F003029A60084B084A3B
:102A4000926842F002029A6000BF054B9B6803F057
:102A50000C03082BF9D10C37BD465DF8047B704799
:102A6000003802400070004008544007003C02401B
:102A700080B485B000AFF860B9607A60FB68043B51
:102A8000FB60FB684FF080721A60FB68043BFB60E0
:102A9000BA68FB681A60FB68043BFB600C4AFB6881
:102AA0001A60FB68143BFB607A68FB681A60FB687D
:102AB000043BFB60FB686FF002021A60FB68203B7E
:102AC000FB60FB6818461437BD465DF8047B704711
:102AD000D52A000880B500AF00F082F8FEE700BFFD
:102AE000064B19680868B0E8F04F80F30988BFF317
:102AF0006F8F4FF0000080F311887047B004002002
:102B000006480068006880F3088862B661B6BFF3C3
:102B10004F8FBFF36F8F00DF00BF000008ED00E0B4
:102B200080B500AF0F4B0F4A126842F47F021A6063
:102B30000C4B0C4A126842F07F421A6000F09EF87B
:102B4000094B00221A6000F0ABF8084B074A1268E4
:102B500042F040421A60FFF7D3FFFFF7BBFF0023AC
:102B6000184680BD20ED00E01400002034EF00E0A6
:102B700080B400AFBD465DF8047B704780B400AF01
:102B8000054B4FF080521A60BFF34F8FBFF36F8F2A
:102B9000BD465DF8047B704704ED00E080B500AFF2
:102BA00000F01EF8044B1B685A1C034B1A60BFF35D
:102BB0004F8FBFF36F8F80BD1400002080B500AF32
:102BC000064B1B685A1E054B1A60044B1B68002BF2
:102BD00002D1002000F00EF880BD00BF14000020DC
:102BE000EFF311804FF0BF0181F31188704700238C
:102BF000184600BF80F31188704700BFEFF30980CB
:102C0000BFF36F8F124B1A681EF0100F08BF20ED34
:102C1000108A20E9F04F10604DF8043D4FF0BF00DE
:102C200080F31188FEF7E8FE4FF0000080F3118872
:102C300008BC19680868B0E8F04F1EF0100F08BF14
:102C4000B0EC108A80F30988BFF36F8F704700BF24
:102C5000B004002080B500AFFFF7C2FFFEF716FEFC
:102C60000346002B03D0044B4FF080521A60002023
:102C7000FFF7C0FF80BD00BF04ED00E080B400AFEF
:102C8000044B054A1A60054B07221A60BD465DF8E1
:102C9000047B704714E000E03F90020010E000E089
:102CA000DFF80C00016841F470010160704700001A
:102CB00088ED00E080B584B000AF786039607B6853
:102CC000FB60FFF76BFFFB681A68FB68DB6BF9685A
:102CD000096C01FB03F31A44FB685A60FB6800228D
:102CE0009A63FB681A68FB689A60FB681A68FB685D
:102CF000DB6B013BF968096C01FB03F31A44FB68C9
:102D0000DA60FB684FF0FF325A64FB684FF0FF3225
:102D10009A643B68002B0ED1FB681B69002B14D012
:102D2000FB6810331846FEF72DFF0346012B0CD12C
:102D3000FFF724FF09E0FB6810331846FFF738FD62
:102D4000FB6824331846FFF733FDFFF737FF0123F5
:102D500018461037BD4680BD80B588B000AFF8601A
:102D6000B9601346FB710023FB61FB68002B26D082
:102D70004C2000F05DFCB861BB69002B1FD0FB68E4
:102D8000BA6802FB03F301337B61786900F050FC01
:102D90000246BB691A60BB691B68002B0CD0BB697B
:102DA000FA68DA63BB69BA681A64B8690121FFF787
:102DB00081FFBB69FB6102E0B86900F0C5FCFB69FB
:102DC00018462037BD4680BD80B58AB000AFF86098
:102DD000B9607A603B6000237B62FB683B62FFF76F
:102DE000DDFE3B6A9A6B3B6ADB6B9A4202D33B681F
:102DF000022B1DD1386AB9683A6800F07DF9F86194
:102E00003B6A5B6A002B0AD03B6A24331846FEF704
:102E1000B9FE0346012B07D1FFF7B0FE04E0FB69C2
:102E2000002B01D0FFF7AAFEFFF7C8FE012359E0EF
:102E30007B68002B03D1FFF7C1FE002352E07B6AC1
:102E4000002B06D107F114031846FEF7EFFE01230D
:102E50007B62FFF7B3FEFEF77BFCFFF79FFE3B6A4A
:102E60005B6CB3F1FF3F02D13B6A00225A643B6ABC
:102E70009B6CB3F1FF3F02D13B6A00229A64FFF7DB
:102E80009DFE07F114023B1D10461946FEF7E4FEB5
:102E90000346002B1ED1386A00F024FA0346002BAB
:102EA00012D03B6A03F110027B6810461946FEF708
:102EB000F7FD386A00F0B4F9FEF758FC0346002B22
:102EC0000FD1FFF75BFE0CE0386A00F0A9F9FEF7BE
:102ED0004DFC84E7386A00F0A3F9FEF747FC0023B5
:102EE00000E07CE718462837BD4680BD80B588B035
:102EF00000AFF860B9607A603B60FB68BB61FFF7C8
:102F00006FFE7861BB699A6BBB69DB6B9A4202D337
:102F10003B68022B2DD1B869B9683A6800F0ECF82B
:102F20000346002B05D07B68002B02D07B68012272
:102F30001A60BB699B6CB3F1FF3F12D1BB695B6A3E
:102F4000002B13D0BB6924331846FEF71BFE034643
:102F5000002B0BD07B68002B08D07B6801221A6005
:102F600004E0BB699B6C5A1CBB699A640123FB613A
:102F700001E00023FB617869FFF73CFEFB6918461E
:102F80002037BD4680BD00BF80B58AB000AFF86075
:102F9000B9607A603B6000237B62FB683B62FFF7AD
:102FA000FDFD3B6A9B6B002B3BD03B6ADB68FB6102
:102FB000386AB96800F00EF93B68002B1CD13B6AF7
:102FC0009B6B5A1E3B6A9A633B6A1B68002B04D1B9
:102FD000FFF7F8F802463B6A5A603B6A1B69002B10
:102FE0001BD03B6A10331846FEF7CCFD0346012B7D
:102FF00013D1FFF7C3FD10E03B6AFA69DA603B6A60
:103000005B6A002B09D03B6A24331846FEF7BAFDF1
:103010000346002B01D0FFF7B1FDFFF7CFFD0123E1
:1030200066E07B68002B03D1FFF7C8FD00235FE05B
:103030007B6A002B06D107F114031846FEF7F6FD54
:1030400001237B62FFF7BAFDFEF782FBFFF7A6FDC7
:103050003B6A5B6CB3F1FF3F02D13B6A00225A64CA
:103060003B6A9B6CB3F1FF3F02D13B6A00229A643A
:10307000FFF7A4FD07F114023B1D10461946FEF7A9
:10308000EBFD0346002B2BD1386A00F015F90346FF
:10309000002B1FD03B6A1B68002B08D1FFF77EFD79
:1030A0003B6A5B681846FEF7B3FFFFF787FD3B6A94
:1030B00003F124027B6810461946FEF7F1FC386ADA
:1030C00000F0AEF8FEF752FB0346002B0FD1FFF7DE
:1030D00055FD0CE0386A00F0A3F8FEF747FB5EE709
:1030E000386A00F09DF8FEF741FB002300E056E748
:1030F00018462837BD4680BD80B586B000AFF86061
:10310000B9607A6000237B61FB681B6C002B0DD1DA
:10311000FB681B68002B52D1FB685B681846FEF702
:10312000EDFF7861FB6800225A6048E07B68002B65
:103130001AD1FB689A68FB681B6C1046B9681A467E
:1031400000F062FBFB689A68FB681B6C1A44FB6822
:103150009A60FB689A68FB685B689A4203D3FB68D5
:103160001A68FB689A602AE0FB68DA68FB681B6CE7
:103170001046B9681A4600F047FBFB68DA68FB683E
:103180001B6C5B421A44FB68DA60FB68DA68FB6818
:103190001B689A4207D2FB685A68FB681B6C5B424B
:1031A0001A44FB68DA607B68022B08D1FB689B6BD2
:1031B000002B04D0FB689B6B5A1EFB689A63FB686C
:1031C0009B6B5A1CFB689A637B6918461837BD468F
:1031D00080BD00BF80B582B000AF786039607B6889
:1031E0001B6C002B19D07B68DA687B681B6C1A4457
:1031F0007B68DA607B68DA687B685B689A4203D335
:103200007B681A687B68DA607B68DA687B681B6CAD
:10321000386811461A4600F0F7FA0837BD4680BDF7
:1032200080B582B000AF7860FFF7B8FC14E07B682F
:103230005B6A002B0AD07B6824331846FEF7A2FC99
:103240000346002B03D0FEF74BFD00E008E07B684F
:103250009B6C5A1E7B689A647B689B6C002BE6DC37
:103260007B684FF0FF329A64FFF7A8FCFFF796FCEB
:1032700014E07B681B69002B0FD07B681033184665
:10328000FEF780FC0346002B01D0FEF729FD7B688A
:103290005B6C5A1E7B685A6400E003E07B685B6CE1
:1032A000002BE6DC7B684FF0FF325A64FFF786FCA8
:1032B0000837BD4680BD00BF80B584B000AF7860E0
:1032C000FFF76CFC7B689B6B002B02D10123FB603A
:1032D00001E00023FB60FFF771FCFB681846103724
:1032E000BD4680BD80B584B000AF7860FFF756FC66
:1032F0007B689A6B7B68DB6B9A4202D10123FB608F
:1033000001E00023FB60FFF759FCFB68184610370B
:10331000BD4680BD80B485B000AF786039600023C1
:10332000FB6014E00E4BFA6853F83230002B0BD1DF
:103330000B4BFA68396843F83210094AFB68DB0026
:1033400013447A685A6005E0FB680133FB60FB6850
:10335000092BE7D91437BD465DF8047B704700BFE1
:1033600024BA002080B584B000AF786039607B68F3
:10337000FB60FFF713FCFB685B6CB3F1FF3F02D10E
:10338000FB6800225A64FB689B6CB3F1FF3F02D1DB
:10339000FB6800229A64FFF711FCFB689B6B002B13
:1033A00005D1FB68243318463968FEF7B9FBF86885
:1033B000FFF736FF1037BD4680BD00BF80B582B035
:1033C00000AF0346FB71FB79002B06D0FB79012B84
:1033D00003D00B487021FDF7A9FCFB79002B06D028
:1033E000084B084A126842F004021A6005E0054BD7
:1033F000044A126822F004021A600837BD4680BDF4
:10340000D83B00080008065080B584B000AF786053
:103410000023FB730023BB607B68012B55D07B68C6
:10342000022B52D07B68042B4FD07B68082B4CD0EA
:103430007B68102B49D07B68202B46D07B68402BC3
:1034400043D07B68802B40D07B68B3F5807F3CD035
:103450007B68B3F5007F38D07B68B3F5806F34D0DC
:103460007B68B3F5006F30D07B68B3F5805F2CD0FC
:103470007B68B3F5005F28D07B68B3F5804F24D01C
:103480007B68B3F5004F20D07B68B3F5803F1CD03C
:103490007B68B3F5003F18D07B68B3F5802F14D05C
:1034A0007B68B3F5002F10D07B68B3F5801F0CD07C
:1034B0007B68B3F5001F08D07B68B3F5800F04D09C
:1034C0000E484FF48371FDF731FC0D4B1A687B6891
:1034D0001340BB600A4B5A697B681340002B05D030
:1034E000BB68002B02D00123FB7301E00023FB73B8
:1034F000FB7B18461037BD4680BD00BF203C00084E
:10350000003C014080B582B000AF78607B68DB0D85
:10351000DB05002B02D17B68002B04D1054840F26B
:103520001D11FDF703FC044B7A685A610837BD464C
:1035300080BD00BF203C0008003C014080B584B045
:1035400000AF78600023FB730023BB730F237B73F2
:103550007B68DB78002B07D07B68DB78012B03D0FE
:1035600030488721FDF7E2FB7B685B780F2B03D99E
:103570002C488821FDF7DAFB7B689B780F2B03D959
:1035800028488921FDF7D2FB7B68DB78002B37D0F8
:10359000254BDB68DB4303F4E0631B0AFB73FB7B17
:1035A000C3F10403BB737A7BFB7B42FA03F37B73A7
:1035B0007B685B781A46BB7B02FA03F3FB737B687C
:1035C0009A787B7B1340DAB2FB7B1343FB73FB7B64
:1035D0001B01FB73154A7B681B781344FA7B83F845
:1035E0000023124B7A6812785209D2B279680978AE
:1035F00001F01F01012000FA01F143F822100EE052
:103600000A4B7A6812785209D2B27968097801F0C7
:103610001F01012000FA01F1203243F82210103777
:10362000BD4680BD683C000800ED00E000E100E020
:1036300080B588B000AF786000237B61FEF788F822
:103640003D4B1B68002B04D100F0B6F83A4B012229
:103650001A607B68002B0DD008237A6813447B60C6
:103660007B6803F00703002B04D07B6823F007037B
:1036700008337B607B68002B57D07A684BF2F733B6
:103680009A4252D82D4BBB612C4B1B68FB6104E066
:10369000FB69BB61FB691B68FB61FB695A687B685E
:1036A0009A4203D2FB691B68002BF1D1FA69244BC3
:1036B0009A423AD0BB691A68082313447B61FB69BC
:1036C0001A68BB691A60FB695A687B68D21A0823BA
:1036D0005B009A4222D9FA697B681344FB60FB695C
:1036E0005A687B68D21AFB685A60FB697A685A602C
:1036F000FB685B68BB60114B3B6102E03B691B6888
:103700003B613B691B685A68BB689A42F6D33B69C8
:103710001A68FB681A603B69FA681A60094B1A68F4
:10372000FB695B68D21A074B1A60FEF71FF87B69CA
:1037300018462037BD4680BD20BA002010BA0020B0
:1037400018BA00201800002080B586B000AF78605D
:103750007B683B617B68002B27D008235B423A697A
:1037600013443B613B69FB60FDF7F2FFFB685B685C
:10377000BB600F4B7B6102E07B691B687B617B69EF
:103780001B685A68BB689A42F6D37B691A68FB6863
:103790001A607B69FA681A60FB685A68054B1B68F7
:1037A0001A44044B1A60FDF7E1FF1837BD4680BD8F
:1037B00010BA00201800002080B483B000AF0F4B77
:1037C00023F007037B600E4B7A681A600C4B0022D3
:1037D0005A600C4B4BF2F8325A600A4B00221A60C6
:1037E0007B683B603B684BF2F8325A603B68054AA5
:1037F0001A600C37BD465DF8047B70471806002040
:1038000010BA002018BA0020844641EA000313F0E1
:1038100003036DD1403A41D351F8043B40F8043BD7
:1038200051F8043B40F8043B51F8043B40F8043B9A
:1038300051F8043B40F8043B51F8043B40F8043B8A
:1038400051F8043B40F8043B51F8043B40F8043B7A
:1038500051F8043B40F8043B51F8043B40F8043B6A
:1038600051F8043B40F8043B51F8043B40F8043B5A
:1038700051F8043B40F8043B51F8043B40F8043B4A
:1038800051F8043B40F8043B51F8043B40F8043B3A
:1038900051F8043B40F8043B403ABDD2303211D3DA
:1038A00051F8043B40F8043B51F8043B40F8043B1A
:1038B00051F8043B40F8043B51F8043B40F8043B0A
:1038C000103AEDD20C3205D351F8043B40F8043BDA
:1038D000043AF9D2043208D0D2071CBF11F8013BD8
:1038E00000F8013B01D30B8803806046704700BF9E
:1038F000082A13D38B078DD010F003038AD0C3F1AD
:103900000403D21ADB071CBF11F8013B00F8013B8E
:1039100080D331F8023B20F8023B7BE7043AD9D34D
:10392000013A11F8013B00F8013BF9D20B78037022
:103930004B7843708B78837060467047F0B484078F
:1039400043D0541E002A3ED0CDB2034603E0621E8F
:10395000002C38D0144603F8015B9A07F7D1032CEA
:103960002AD9CDB245EA05250F2C45EA054515D9DA
:10397000A4F110073F0903F1100606EB07161A46DB
:10398000156055609560D5601032B242F8D104F0F0
:103990000F040137032C03EB07130DD91E462246F3
:1039A000043A032A46F8045BFAD8221F22F00302E5
:1039B0000432134404F003042CB1C9B21C4403F8CC
:1039C000011BA342FBD1F0BC704714460346C6E777
:1039D000024B13B1024800F005B870470000000028
:1039E000F1390008014600200246034600F018B8ED
:1039F00038B5094D094C641BA41018BF05EB8405AC
:103A000005D0013C55F8043D9847002CF9D1BDE89C
:103A1000384000F05FB800BF50040020540400207C
:103A2000F0B5274C2668D6F8484185B00746002CEB
:103A300041D065681F2D1EDD224818B94FF0FF30B8
:103A400005B0F0BD4FF4C870039102920193AFF33B
:103A500000800399029A019B04460028EED0D6F814
:103A600048512560002060600546C6F84841C4F80A
:103A70008801C4F88C013FB9AB1C0020013565609A
:103A800044F8231005B0F0BD04EB85004FF0010CA5
:103A9000C0F88820D4F888610CFA05F21643022F8A
:103AA000C4F88861C0F80831E6D1D4F88C311A43E3
:103AB000C4F88C21E0E706F5A674C6F84841B8E7DB
:103AC000AC3C000800000000F8B500BFF8BC08BC22
:103AD0009E467047F8B500BFF8BC08BC9E467047CC
:103AE000483A5C574F524B53504143455C5F5354E7
:103AF0004D33325C434E43496E7465726661636553
:103B0000546573745C636D7369735F6C69625C7335
:103B10006F757263655C73746D3332663478785F89
:103B200075736172742E63007461736B0000000022
:103B3000483A5C574F524B53504143455C5F535496
:103B40004D33325C434E43496E7465726661636502
:103B5000546573745C636D7369735F6C69625C73E5
:103B60006F757263655C73746D3332663478785F39
:103B70007263632E63000000546D722053766300FD
:103B8000546D72510000000049444C450000000093
:103B9000483A5C574F524B53504143455C5F535436
:103BA0004D33325C434E43496E74657266616365A2
:103BB000546573745C636D7369735F6C69625C7385
:103BC0006F757263655C73746D3332663478785FD9
:103BD0006770696F2E630000483A5C574F524B5331
:103BE000504143455C5F53544D33325C434E43492F
:103BF0006E74657266616365546573745C636D733E
:103C000069735F6C69625C736F757263655C737412
:103C10006D3332663478785F726E672E6300000011
:103C2000483A5C574F524B53504143455C5F5354A5
:103C30004D33325C434E43496E7465726661636511
:103C4000546573745C636D7369735F6C69625C73F4
:103C50006F757263655C73746D3332663478785F48
:103C6000657874692E630000483A5C574F524B5395
:103C7000504143455C5F53544D33325C434E43499E
:103C80006E74657266616365546573745C636D73AD
:103C900069735F6C69625C736F757263655C6D6993
:103CA00073632E630000000043000000200000202A
:103CB00000000000010203040102030406070809D2
:103CC000FFFFFFFFAAAAAAAAF8B3000000000000A5
:103CD000000000000C03002074030020DC0300201F
:103CE00000000000000000000000000000000000D4
:103CF00000000000000000000000000000000000C4
:103D000000000000A83C00080000000000000000C7
:103D100000000000000000000000000000000000A3
:103D20000000000000000000000000000000000093
:103D30000000000000000000000000000000000083
:103D40000000000000000000000000000000000073
:103D50000000000000000000000000000000000063
:103D60000000000000000000000000000000000053
:103D70000000000000000000010000000000000042
:103D80000E33CDAB34126DE6ECDE05000B00000007
:103D90000000000000000000000000000000000023
:103DA0000000000000000000000000000000000013
:103DB0000000000000000000000000000000000003
:103DC00000000000000000000000000000000000F3
:1040F0000000000000000000D1390008AD010008F8
:08410000890100080000000025
:0400000508000000EF
:00000001FF
